{
  "address": "0xC9F6671d9D08519bF1310B74d110C942d2D029F9",
  "abi": [
    {
      "inputs": [
        {
          "internalType": "address",
          "name": "_WhitelistAddress",
          "type": "address"
        },
        {
          "internalType": "string",
          "name": "_name",
          "type": "string"
        },
        {
          "internalType": "string",
          "name": "_symbol",
          "type": "string"
        }
      ],
      "stateMutability": "nonpayable",
      "type": "constructor"
    },
    {
      "inputs": [],
      "name": "ERC721EnumerableForbiddenBatchMint",
      "type": "error"
    },
    {
      "inputs": [
        {
          "internalType": "address",
          "name": "sender",
          "type": "address"
        },
        {
          "internalType": "uint256",
          "name": "tokenId",
          "type": "uint256"
        },
        {
          "internalType": "address",
          "name": "owner",
          "type": "address"
        }
      ],
      "name": "ERC721IncorrectOwner",
      "type": "error"
    },
    {
      "inputs": [
        {
          "internalType": "address",
          "name": "operator",
          "type": "address"
        },
        {
          "internalType": "uint256",
          "name": "tokenId",
          "type": "uint256"
        }
      ],
      "name": "ERC721InsufficientApproval",
      "type": "error"
    },
    {
      "inputs": [
        {
          "internalType": "address",
          "name": "approver",
          "type": "address"
        }
      ],
      "name": "ERC721InvalidApprover",
      "type": "error"
    },
    {
      "inputs": [
        {
          "internalType": "address",
          "name": "operator",
          "type": "address"
        }
      ],
      "name": "ERC721InvalidOperator",
      "type": "error"
    },
    {
      "inputs": [
        {
          "internalType": "address",
          "name": "owner",
          "type": "address"
        }
      ],
      "name": "ERC721InvalidOwner",
      "type": "error"
    },
    {
      "inputs": [
        {
          "internalType": "address",
          "name": "receiver",
          "type": "address"
        }
      ],
      "name": "ERC721InvalidReceiver",
      "type": "error"
    },
    {
      "inputs": [
        {
          "internalType": "address",
          "name": "sender",
          "type": "address"
        }
      ],
      "name": "ERC721InvalidSender",
      "type": "error"
    },
    {
      "inputs": [
        {
          "internalType": "uint256",
          "name": "tokenId",
          "type": "uint256"
        }
      ],
      "name": "ERC721NonexistentToken",
      "type": "error"
    },
    {
      "inputs": [
        {
          "internalType": "address",
          "name": "owner",
          "type": "address"
        },
        {
          "internalType": "uint256",
          "name": "index",
          "type": "uint256"
        }
      ],
      "name": "ERC721OutOfBoundsIndex",
      "type": "error"
    },
    {
      "inputs": [
        {
          "internalType": "address",
          "name": "owner",
          "type": "address"
        }
      ],
      "name": "OwnableInvalidOwner",
      "type": "error"
    },
    {
      "inputs": [
        {
          "internalType": "address",
          "name": "account",
          "type": "address"
        }
      ],
      "name": "OwnableUnauthorizedAccount",
      "type": "error"
    },
    {
      "inputs": [],
      "name": "Suprabhat__Mitro__ALREADY_OWNED",
      "type": "error"
    },
    {
      "inputs": [],
      "name": "Suprabhat__Mitro__MAX_LIMIT_REACHED",
      "type": "error"
    },
    {
      "inputs": [],
      "name": "Suprabhat__Mitro__NOT_ENOUGH_ETH",
      "type": "error"
    },
    {
      "anonymous": false,
      "inputs": [
        {
          "indexed": true,
          "internalType": "address",
          "name": "owner",
          "type": "address"
        },
        {
          "indexed": true,
          "internalType": "address",
          "name": "approved",
          "type": "address"
        },
        {
          "indexed": true,
          "internalType": "uint256",
          "name": "tokenId",
          "type": "uint256"
        }
      ],
      "name": "Approval",
      "type": "event"
    },
    {
      "anonymous": false,
      "inputs": [
        {
          "indexed": true,
          "internalType": "address",
          "name": "owner",
          "type": "address"
        },
        {
          "indexed": true,
          "internalType": "address",
          "name": "operator",
          "type": "address"
        },
        {
          "indexed": false,
          "internalType": "bool",
          "name": "approved",
          "type": "bool"
        }
      ],
      "name": "ApprovalForAll",
      "type": "event"
    },
    {
      "anonymous": false,
      "inputs": [
        {
          "indexed": true,
          "internalType": "address",
          "name": "previousOwner",
          "type": "address"
        },
        {
          "indexed": true,
          "internalType": "address",
          "name": "newOwner",
          "type": "address"
        }
      ],
      "name": "OwnershipTransferred",
      "type": "event"
    },
    {
      "anonymous": false,
      "inputs": [
        {
          "indexed": true,
          "internalType": "address",
          "name": "from",
          "type": "address"
        },
        {
          "indexed": true,
          "internalType": "address",
          "name": "to",
          "type": "address"
        },
        {
          "indexed": true,
          "internalType": "uint256",
          "name": "tokenId",
          "type": "uint256"
        }
      ],
      "name": "Transfer",
      "type": "event"
    },
    {
      "inputs": [],
      "name": "PRICE",
      "outputs": [
        {
          "internalType": "uint256",
          "name": "",
          "type": "uint256"
        }
      ],
      "stateMutability": "view",
      "type": "function"
    },
    {
      "inputs": [
        {
          "internalType": "address",
          "name": "to",
          "type": "address"
        },
        {
          "internalType": "uint256",
          "name": "tokenId",
          "type": "uint256"
        }
      ],
      "name": "approve",
      "outputs": [],
      "stateMutability": "nonpayable",
      "type": "function"
    },
    {
      "inputs": [
        {
          "internalType": "address",
          "name": "owner",
          "type": "address"
        }
      ],
      "name": "balanceOf",
      "outputs": [
        {
          "internalType": "uint256",
          "name": "",
          "type": "uint256"
        }
      ],
      "stateMutability": "view",
      "type": "function"
    },
    {
      "inputs": [
        {
          "internalType": "uint256",
          "name": "tokenId",
          "type": "uint256"
        }
      ],
      "name": "getApproved",
      "outputs": [
        {
          "internalType": "address",
          "name": "",
          "type": "address"
        }
      ],
      "stateMutability": "view",
      "type": "function"
    },
    {
      "inputs": [],
      "name": "getMaxTokens",
      "outputs": [
        {
          "internalType": "uint256",
          "name": "",
          "type": "uint256"
        }
      ],
      "stateMutability": "pure",
      "type": "function"
    },
    {
      "inputs": [],
      "name": "getReservedTokens",
      "outputs": [
        {
          "internalType": "uint256",
          "name": "",
          "type": "uint256"
        }
      ],
      "stateMutability": "view",
      "type": "function"
    },
    {
      "inputs": [],
      "name": "getReservedTokensClaimed",
      "outputs": [
        {
          "internalType": "uint256",
          "name": "",
          "type": "uint256"
        }
      ],
      "stateMutability": "view",
      "type": "function"
    },
    {
      "inputs": [
        {
          "internalType": "address",
          "name": "owner",
          "type": "address"
        },
        {
          "internalType": "address",
          "name": "operator",
          "type": "address"
        }
      ],
      "name": "isApprovedForAll",
      "outputs": [
        {
          "internalType": "bool",
          "name": "",
          "type": "bool"
        }
      ],
      "stateMutability": "view",
      "type": "function"
    },
    {
      "inputs": [],
      "name": "mint",
      "outputs": [],
      "stateMutability": "payable",
      "type": "function"
    },
    {
      "inputs": [],
      "name": "name",
      "outputs": [
        {
          "internalType": "string",
          "name": "",
          "type": "string"
        }
      ],
      "stateMutability": "view",
      "type": "function"
    },
    {
      "inputs": [],
      "name": "owner",
      "outputs": [
        {
          "internalType": "address",
          "name": "",
          "type": "address"
        }
      ],
      "stateMutability": "view",
      "type": "function"
    },
    {
      "inputs": [
        {
          "internalType": "uint256",
          "name": "tokenId",
          "type": "uint256"
        }
      ],
      "name": "ownerOf",
      "outputs": [
        {
          "internalType": "address",
          "name": "",
          "type": "address"
        }
      ],
      "stateMutability": "view",
      "type": "function"
    },
    {
      "inputs": [],
      "name": "renounceOwnership",
      "outputs": [],
      "stateMutability": "nonpayable",
      "type": "function"
    },
    {
      "inputs": [
        {
          "internalType": "address",
          "name": "from",
          "type": "address"
        },
        {
          "internalType": "address",
          "name": "to",
          "type": "address"
        },
        {
          "internalType": "uint256",
          "name": "tokenId",
          "type": "uint256"
        }
      ],
      "name": "safeTransferFrom",
      "outputs": [],
      "stateMutability": "nonpayable",
      "type": "function"
    },
    {
      "inputs": [
        {
          "internalType": "address",
          "name": "from",
          "type": "address"
        },
        {
          "internalType": "address",
          "name": "to",
          "type": "address"
        },
        {
          "internalType": "uint256",
          "name": "tokenId",
          "type": "uint256"
        },
        {
          "internalType": "bytes",
          "name": "data",
          "type": "bytes"
        }
      ],
      "name": "safeTransferFrom",
      "outputs": [],
      "stateMutability": "nonpayable",
      "type": "function"
    },
    {
      "inputs": [
        {
          "internalType": "address",
          "name": "operator",
          "type": "address"
        },
        {
          "internalType": "bool",
          "name": "approved",
          "type": "bool"
        }
      ],
      "name": "setApprovalForAll",
      "outputs": [],
      "stateMutability": "nonpayable",
      "type": "function"
    },
    {
      "inputs": [
        {
          "internalType": "bytes4",
          "name": "interfaceId",
          "type": "bytes4"
        }
      ],
      "name": "supportsInterface",
      "outputs": [
        {
          "internalType": "bool",
          "name": "",
          "type": "bool"
        }
      ],
      "stateMutability": "view",
      "type": "function"
    },
    {
      "inputs": [],
      "name": "symbol",
      "outputs": [
        {
          "internalType": "string",
          "name": "",
          "type": "string"
        }
      ],
      "stateMutability": "view",
      "type": "function"
    },
    {
      "inputs": [
        {
          "internalType": "uint256",
          "name": "index",
          "type": "uint256"
        }
      ],
      "name": "tokenByIndex",
      "outputs": [
        {
          "internalType": "uint256",
          "name": "",
          "type": "uint256"
        }
      ],
      "stateMutability": "view",
      "type": "function"
    },
    {
      "inputs": [
        {
          "internalType": "address",
          "name": "owner",
          "type": "address"
        },
        {
          "internalType": "uint256",
          "name": "index",
          "type": "uint256"
        }
      ],
      "name": "tokenOfOwnerByIndex",
      "outputs": [
        {
          "internalType": "uint256",
          "name": "",
          "type": "uint256"
        }
      ],
      "stateMutability": "view",
      "type": "function"
    },
    {
      "inputs": [
        {
          "internalType": "uint256",
          "name": "tokenId",
          "type": "uint256"
        }
      ],
      "name": "tokenURI",
      "outputs": [
        {
          "internalType": "string",
          "name": "",
          "type": "string"
        }
      ],
      "stateMutability": "view",
      "type": "function"
    },
    {
      "inputs": [],
      "name": "totalSupply",
      "outputs": [
        {
          "internalType": "uint256",
          "name": "",
          "type": "uint256"
        }
      ],
      "stateMutability": "view",
      "type": "function"
    },
    {
      "inputs": [
        {
          "internalType": "address",
          "name": "from",
          "type": "address"
        },
        {
          "internalType": "address",
          "name": "to",
          "type": "address"
        },
        {
          "internalType": "uint256",
          "name": "tokenId",
          "type": "uint256"
        }
      ],
      "name": "transferFrom",
      "outputs": [],
      "stateMutability": "nonpayable",
      "type": "function"
    },
    {
      "inputs": [
        {
          "internalType": "address",
          "name": "newOwner",
          "type": "address"
        }
      ],
      "name": "transferOwnership",
      "outputs": [],
      "stateMutability": "nonpayable",
      "type": "function"
    },
    {
      "inputs": [],
      "name": "withdraw",
      "outputs": [],
      "stateMutability": "nonpayable",
      "type": "function"
    }
  ],
  "transactionHash": "0xb55d87c04a8bf3f4961d3147ad7a6e1577e9f821e5d2b688467e1df360f6177a",
  "args": [
    "0xbaC23Cdb136891dcc19A0d6c7BbA462891FB3F6D",
    "Suprabhat__Mitro",
    "SupMit"
  ],
  "numDeployments": 1,
  "solcInputHash": "5fcbdda12c55719a428023c95b2c7d33",
  "bytecode": "0x60a06040526000600b5534801561001557600080fd5b506040516135ed3803806135ed8339818101604052810190610037919061045b565b33828281600090816100499190610707565b5080600190816100599190610707565b505050600073ffffffffffffffffffffffffffffffffffffffff168173ffffffffffffffffffffffffffffffffffffffff16036100ce5760006040517f1e4fbdf70000000000000000000000000000000000000000000000000000000081526004016100c591906107e8565b60405180910390fd5b6100dd816101c260201b60201c565b5082600c60006101000a81548173ffffffffffffffffffffffffffffffffffffffff021916908373ffffffffffffffffffffffffffffffffffffffff160217905550600c60009054906101000a900473ffffffffffffffffffffffffffffffffffffffff1673ffffffffffffffffffffffffffffffffffffffff1663048e2e766040518163ffffffff1660e01b8152600401602060405180830381865afa15801561018c573d6000803e3d6000fd5b505050506040513d601f19601f820116820180604052508101906101b0919061083c565b60ff1660808181525050505050610869565b6000600a60009054906101000a900473ffffffffffffffffffffffffffffffffffffffff16905081600a60006101000a81548173ffffffffffffffffffffffffffffffffffffffff021916908373ffffffffffffffffffffffffffffffffffffffff1602179055508173ffffffffffffffffffffffffffffffffffffffff168173ffffffffffffffffffffffffffffffffffffffff167f8be0079c531659141344cd1fd0a4f28419497f9722a3daafe3b4186f6b6457e060405160405180910390a35050565b6000604051905090565b600080fd5b600080fd5b600073ffffffffffffffffffffffffffffffffffffffff82169050919050565b60006102c78261029c565b9050919050565b6102d7816102bc565b81146102e257600080fd5b50565b6000815190506102f4816102ce565b92915050565b600080fd5b600080fd5b6000601f19601f8301169050919050565b7f4e487b7100000000000000000000000000000000000000000000000000000000600052604160045260246000fd5b61034d82610304565b810181811067ffffffffffffffff8211171561036c5761036b610315565b5b80604052505050565b600061037f610288565b905061038b8282610344565b919050565b600067ffffffffffffffff8211156103ab576103aa610315565b5b6103b482610304565b9050602081019050919050565b60005b838110156103df5780820151818401526020810190506103c4565b60008484015250505050565b60006103fe6103f984610390565b610375565b90508281526020810184848401111561041a576104196102ff565b5b6104258482856103c1565b509392505050565b600082601f830112610442576104416102fa565b5b81516104528482602086016103eb565b91505092915050565b60008060006060848603121561047457610473610292565b5b6000610482868287016102e5565b935050602084015167ffffffffffffffff8111156104a3576104a2610297565b5b6104af8682870161042d565b925050604084015167ffffffffffffffff8111156104d0576104cf610297565b5b6104dc8682870161042d565b9150509250925092565b600081519050919050565b7f4e487b7100000000000000000000000000000000000000000000000000000000600052602260045260246000fd5b6000600282049050600182168061053857607f821691505b60208210810361054b5761054a6104f1565b5b50919050565b60008190508160005260206000209050919050565b60006020601f8301049050919050565b600082821b905092915050565b6000600883026105b37fffffffffffffffffffffffffffffffffffffffffffffffffffffffffffffffff82610576565b6105bd8683610576565b95508019841693508086168417925050509392505050565b6000819050919050565b6000819050919050565b60006106046105ff6105fa846105d5565b6105df565b6105d5565b9050919050565b6000819050919050565b61061e836105e9565b61063261062a8261060b565b848454610583565b825550505050565b600090565b61064761063a565b610652818484610615565b505050565b5b818110156106765761066b60008261063f565b600181019050610658565b5050565b601f8211156106bb5761068c81610551565b61069584610566565b810160208510156106a4578190505b6106b86106b085610566565b830182610657565b50505b505050565b600082821c905092915050565b60006106de600019846008026106c0565b1980831691505092915050565b60006106f783836106cd565b9150826002028217905092915050565b610710826104e6565b67ffffffffffffffff81111561072957610728610315565b5b6107338254610520565b61073e82828561067a565b600060209050601f831160018114610771576000841561075f578287015190505b61076985826106eb565b8655506107d1565b601f19841661077f86610551565b60005b828110156107a757848901518255600182019150602085019450602081019050610782565b868310156107c457848901516107c0601f8916826106cd565b8355505b6001600288020188555050505b505050505050565b6107e2816102bc565b82525050565b60006020820190506107fd60008301846107d9565b92915050565b600060ff82169050919050565b61081981610803565b811461082457600080fd5b50565b60008151905061083681610810565b92915050565b60006020828403121561085257610851610292565b5b600061086084828501610827565b91505092915050565b608051612d6261088b6000396000818161071e0152610dd40152612d626000f3fe6080604052600436106101665760003560e01c80636352211e116100d157806395d89b411161008a578063b88d4fde11610064578063b88d4fde1461050d578063c87b56dd14610536578063e985e9c514610573578063f2fde38b146105b057610166565b806395d89b411461048e578063a16f3774146104b9578063a22cb465146104e457610166565b80636352211e1461037c5780636abcded1146103b957806370a08231146103e4578063715018a6146104215780638d859f3e146104385780638da5cb5b1461046357610166565b806323b872dd1161012357806323b872dd1461026e5780632f745c591461029757806337e3756f146102d45780633ccfd60b146102ff57806342842e0e146103165780634f6ccce71461033f57610166565b806301ffc9a71461016b57806306fdde03146101a8578063081812fc146101d3578063095ea7b3146102105780631249c58b1461023957806318160ddd14610243575b600080fd5b34801561017757600080fd5b50610192600480360381019061018d919061237b565b6105d9565b60405161019f91906123c3565b60405180910390f35b3480156101b457600080fd5b506101bd610653565b6040516101ca919061246e565b60405180910390f35b3480156101df57600080fd5b506101fa60048036038101906101f591906124c6565b6106e5565b6040516102079190612534565b60405180910390f35b34801561021c57600080fd5b506102376004803603810190610232919061257b565b610701565b005b610241610717565b005b34801561024f57600080fd5b506102586108fe565b60405161026591906125ca565b60405180910390f35b34801561027a57600080fd5b50610295600480360381019061029091906125e5565b61090b565b005b3480156102a357600080fd5b506102be60048036038101906102b9919061257b565b610a0d565b6040516102cb91906125ca565b60405180910390f35b3480156102e057600080fd5b506102e9610ab6565b6040516102f691906125ca565b60405180910390f35b34801561030b57600080fd5b50610314610ac0565b005b34801561032257600080fd5b5061033d600480360381019061033891906125e5565b610b8a565b005b34801561034b57600080fd5b50610366600480360381019061036191906124c6565b610baa565b60405161037391906125ca565b60405180910390f35b34801561038857600080fd5b506103a3600480360381019061039e91906124c6565b610c20565b6040516103b09190612534565b60405180910390f35b3480156103c557600080fd5b506103ce610c32565b6040516103db91906125ca565b60405180910390f35b3480156103f057600080fd5b5061040b60048036038101906104069190612638565b610c3b565b60405161041891906125ca565b60405180910390f35b34801561042d57600080fd5b50610436610cf5565b005b34801561044457600080fd5b5061044d610d09565b60405161045a91906125ca565b60405180910390f35b34801561046f57600080fd5b50610478610d14565b6040516104859190612534565b60405180910390f35b34801561049a57600080fd5b506104a3610d3e565b6040516104b0919061246e565b60405180910390f35b3480156104c557600080fd5b506104ce610dd0565b6040516104db91906125ca565b60405180910390f35b3480156104f057600080fd5b5061050b60048036038101906105069190612691565b610df8565b005b34801561051957600080fd5b50610534600480360381019061052f9190612806565b610e0e565b005b34801561054257600080fd5b5061055d600480360381019061055891906124c6565b610e33565b60405161056a919061246e565b60405180910390f35b34801561057f57600080fd5b5061059a60048036038101906105959190612889565b610e9c565b6040516105a791906123c3565b60405180910390f35b3480156105bc57600080fd5b506105d760048036038101906105d29190612638565b610f30565b005b60007f780e9d63000000000000000000000000000000000000000000000000000000007bffffffffffffffffffffffffffffffffffffffffffffffffffffffff1916827bffffffffffffffffffffffffffffffffffffffffffffffffffffffff1916148061064c575061064b82610fb6565b5b9050919050565b606060008054610662906128f8565b80601f016020809104026020016040519081016040528092919081815260200182805461068e906128f8565b80156106db5780601f106106b0576101008083540402835291602001916106db565b820191906000526020600020905b8154815290600101906020018083116106be57829003601f168201915b5050505050905090565b60006106f082611098565b506106fa82611120565b9050919050565b610713828261070e61115d565b611165565b5050565b6014600b547f00000000000000000000000000000000000000000000000000000000000000006107456108fe565b61074f9190612958565b610759919061298c565b10610790576040517f15357c2300000000000000000000000000000000000000000000000000000000815260040160405180910390fd5b662386f26fc100003410801561083e5750600c60009054906101000a900473ffffffffffffffffffffffffffffffffffffffff1673ffffffffffffffffffffffffffffffffffffffff166320d8dad0336040518263ffffffff1660e01b81526004016107fc9190612534565b602060405180830381865afa158015610819573d6000803e3d6000fd5b505050506040513d601f19601f8201168201806040525081019061083d91906129d5565b5b156108a357600061084e33610c3b565b1115610886576040517f4efd335300000000000000000000000000000000000000000000000000000000815260040160405180910390fd5b600b600081548092919061089990612a02565b91905055506108e5565b662386f26fc100003410156108e4576040517f77c884ce00000000000000000000000000000000000000000000000000000000815260040160405180910390fd5b5b60006108ef6108fe565b90506108fb3382611177565b50565b6000600880549050905090565b600073ffffffffffffffffffffffffffffffffffffffff168273ffffffffffffffffffffffffffffffffffffffff160361097d5760006040517f64a0ae920000000000000000000000000000000000000000000000000000000081526004016109749190612534565b60405180910390fd5b6000610991838361098c61115d565b611195565b90508373ffffffffffffffffffffffffffffffffffffffff168173ffffffffffffffffffffffffffffffffffffffff1614610a07578382826040517f64283d7b0000000000000000000000000000000000000000000000000000000081526004016109fe93929190612a4a565b60405180910390fd5b50505050565b6000610a1883610c3b565b8210610a5d5782826040517fa57d13dc000000000000000000000000000000000000000000000000000000008152600401610a54929190612a81565b60405180910390fd5b600660008473ffffffffffffffffffffffffffffffffffffffff1673ffffffffffffffffffffffffffffffffffffffff168152602001908152602001600020600083815260200190815260200160002054905092915050565b6000600b54905090565b610ac86112b2565b6000610ad2610d14565b9050600047905060008273ffffffffffffffffffffffffffffffffffffffff1682604051610aff90612adb565b60006040518083038185875af1925050503d8060008114610b3c576040519150601f19603f3d011682016040523d82523d6000602084013e610b41565b606091505b5050905080610b85576040517f08c379a0000000000000000000000000000000000000000000000000000000008152600401610b7c90612b3c565b60405180910390fd5b505050565b610ba583838360405180602001604052806000815250610e0e565b505050565b6000610bb46108fe565b8210610bfa576000826040517fa57d13dc000000000000000000000000000000000000000000000000000000008152600401610bf1929190612a81565b60405180910390fd5b60088281548110610c0e57610c0d612b5c565b5b90600052602060002001549050919050565b6000610c2b82611098565b9050919050565b60006014905090565b60008073ffffffffffffffffffffffffffffffffffffffff168273ffffffffffffffffffffffffffffffffffffffff1603610cae5760006040517f89c62b64000000000000000000000000000000000000000000000000000000008152600401610ca59190612534565b60405180910390fd5b600360008373ffffffffffffffffffffffffffffffffffffffff1673ffffffffffffffffffffffffffffffffffffffff168152602001908152602001600020549050919050565b610cfd6112b2565b610d076000611339565b565b662386f26fc1000081565b6000600a60009054906101000a900473ffffffffffffffffffffffffffffffffffffffff16905090565b606060018054610d4d906128f8565b80601f0160208091040260200160405190810160405280929190818152602001828054610d79906128f8565b8015610dc65780601f10610d9b57610100808354040283529160200191610dc6565b820191906000526020600020905b815481529060010190602001808311610da957829003601f168201915b5050505050905090565b60007f0000000000000000000000000000000000000000000000000000000000000000905090565b610e0a610e0361115d565b83836113ff565b5050565b610e1984848461090b565b610e2d610e2461115d565b8585858561156e565b50505050565b6060610e3e82611098565b506000610e4961171f565b90506000815111610e695760405180602001604052806000815250610e94565b80610e7384611736565b604051602001610e84929190612bc7565b6040516020818303038152906040525b915050919050565b6000600560008473ffffffffffffffffffffffffffffffffffffffff1673ffffffffffffffffffffffffffffffffffffffff16815260200190815260200160002060008373ffffffffffffffffffffffffffffffffffffffff1673ffffffffffffffffffffffffffffffffffffffff16815260200190815260200160002060009054906101000a900460ff16905092915050565b610f386112b2565b600073ffffffffffffffffffffffffffffffffffffffff168173ffffffffffffffffffffffffffffffffffffffff1603610faa5760006040517f1e4fbdf7000000000000000000000000000000000000000000000000000000008152600401610fa19190612534565b60405180910390fd5b610fb381611339565b50565b60007f80ac58cd000000000000000000000000000000000000000000000000000000007bffffffffffffffffffffffffffffffffffffffffffffffffffffffff1916827bffffffffffffffffffffffffffffffffffffffffffffffffffffffff1916148061108157507f5b5e139f000000000000000000000000000000000000000000000000000000007bffffffffffffffffffffffffffffffffffffffffffffffffffffffff1916827bffffffffffffffffffffffffffffffffffffffffffffffffffffffff1916145b80611091575061109082611804565b5b9050919050565b6000806110a48361186e565b9050600073ffffffffffffffffffffffffffffffffffffffff168173ffffffffffffffffffffffffffffffffffffffff160361111757826040517f7e27328900000000000000000000000000000000000000000000000000000000815260040161110e91906125ca565b60405180910390fd5b80915050919050565b60006004600083815260200190815260200160002060009054906101000a900473ffffffffffffffffffffffffffffffffffffffff169050919050565b600033905090565b61117283838360016118ab565b505050565b611191828260405180602001604052806000815250611a70565b5050565b6000806111a3858585611a94565b9050600073ffffffffffffffffffffffffffffffffffffffff168173ffffffffffffffffffffffffffffffffffffffff16036111e7576111e284611cae565b611226565b8473ffffffffffffffffffffffffffffffffffffffff168173ffffffffffffffffffffffffffffffffffffffff1614611225576112248185611cf7565b5b5b600073ffffffffffffffffffffffffffffffffffffffff168573ffffffffffffffffffffffffffffffffffffffff16036112685761126384611de2565b6112a7565b8473ffffffffffffffffffffffffffffffffffffffff168173ffffffffffffffffffffffffffffffffffffffff16146112a6576112a58585611eb3565b5b5b809150509392505050565b6112ba61115d565b73ffffffffffffffffffffffffffffffffffffffff166112d8610d14565b73ffffffffffffffffffffffffffffffffffffffff1614611337576112fb61115d565b6040517f118cdaa700000000000000000000000000000000000000000000000000000000815260040161132e9190612534565b60405180910390fd5b565b6000600a60009054906101000a900473ffffffffffffffffffffffffffffffffffffffff16905081600a60006101000a81548173ffffffffffffffffffffffffffffffffffffffff021916908373ffffffffffffffffffffffffffffffffffffffff1602179055508173ffffffffffffffffffffffffffffffffffffffff168173ffffffffffffffffffffffffffffffffffffffff167f8be0079c531659141344cd1fd0a4f28419497f9722a3daafe3b4186f6b6457e060405160405180910390a35050565b600073ffffffffffffffffffffffffffffffffffffffff168273ffffffffffffffffffffffffffffffffffffffff160361147057816040517f5b08ba180000000000000000000000000000000000000000000000000000000081526004016114679190612534565b60405180910390fd5b80600560008573ffffffffffffffffffffffffffffffffffffffff1673ffffffffffffffffffffffffffffffffffffffff16815260200190815260200160002060008473ffffffffffffffffffffffffffffffffffffffff1673ffffffffffffffffffffffffffffffffffffffff16815260200190815260200160002060006101000a81548160ff0219169083151502179055508173ffffffffffffffffffffffffffffffffffffffff168373ffffffffffffffffffffffffffffffffffffffff167f17307eab39ab6107e8899845ad3d59bd9653f200f220920489ca2b5937696c318360405161156191906123c3565b60405180910390a3505050565b60008373ffffffffffffffffffffffffffffffffffffffff163b1115611718578273ffffffffffffffffffffffffffffffffffffffff1663150b7a02868685856040518563ffffffff1660e01b81526004016115cd9493929190612c40565b6020604051808303816000875af192505050801561160957506040513d601f19601f820116820180604052508101906116069190612ca1565b60015b61168d573d8060008114611639576040519150601f19603f3d011682016040523d82523d6000602084013e61163e565b606091505b50600081510361168557836040517f64a0ae9200000000000000000000000000000000000000000000000000000000815260040161167c9190612534565b60405180910390fd5b805181602001fd5b63150b7a0260e01b7bffffffffffffffffffffffffffffffffffffffffffffffffffffffff1916817bffffffffffffffffffffffffffffffffffffffffffffffffffffffff19161461171657836040517f64a0ae9200000000000000000000000000000000000000000000000000000000815260040161170d9190612534565b60405180910390fd5b505b5050505050565b606060405180602001604052806000815250905090565b60606000600161174584611f3e565b01905060008167ffffffffffffffff811115611764576117636126db565b5b6040519080825280601f01601f1916602001820160405280156117965781602001600182028036833780820191505090505b509050600082602001820190505b6001156117f9578080600190039150507f3031323334353637383961626364656600000000000000000000000000000000600a86061a8153600a85816117ed576117ec612cce565b5b049450600085036117a4575b819350505050919050565b60007f01ffc9a7000000000000000000000000000000000000000000000000000000007bffffffffffffffffffffffffffffffffffffffffffffffffffffffff1916827bffffffffffffffffffffffffffffffffffffffffffffffffffffffff1916149050919050565b60006002600083815260200190815260200160002060009054906101000a900473ffffffffffffffffffffffffffffffffffffffff169050919050565b80806118e45750600073ffffffffffffffffffffffffffffffffffffffff168273ffffffffffffffffffffffffffffffffffffffff1614155b15611a185760006118f484611098565b9050600073ffffffffffffffffffffffffffffffffffffffff168373ffffffffffffffffffffffffffffffffffffffff161415801561195f57508273ffffffffffffffffffffffffffffffffffffffff168173ffffffffffffffffffffffffffffffffffffffff1614155b801561197257506119708184610e9c565b155b156119b457826040517fa9fbf51f0000000000000000000000000000000000000000000000000000000081526004016119ab9190612534565b60405180910390fd5b8115611a1657838573ffffffffffffffffffffffffffffffffffffffff168273ffffffffffffffffffffffffffffffffffffffff167f8c5be1e5ebec7d5bd14f71427d1e84f3dd0314c0f7b2291e5b200ac8c7c3b92560405160405180910390a45b505b836004600085815260200190815260200160002060006101000a81548173ffffffffffffffffffffffffffffffffffffffff021916908373ffffffffffffffffffffffffffffffffffffffff16021790555050505050565b611a7a8383612091565b611a8f611a8561115d565b600085858561156e565b505050565b600080611aa08461186e565b9050600073ffffffffffffffffffffffffffffffffffffffff168373ffffffffffffffffffffffffffffffffffffffff1614611ae257611ae181848661218a565b5b600073ffffffffffffffffffffffffffffffffffffffff168173ffffffffffffffffffffffffffffffffffffffff1614611b7357611b246000856000806118ab565b6001600360008373ffffffffffffffffffffffffffffffffffffffff1673ffffffffffffffffffffffffffffffffffffffff168152602001908152602001600020600082825403925050819055505b600073ffffffffffffffffffffffffffffffffffffffff168573ffffffffffffffffffffffffffffffffffffffff1614611bf6576001600360008773ffffffffffffffffffffffffffffffffffffffff1673ffffffffffffffffffffffffffffffffffffffff168152602001908152602001600020600082825401925050819055505b846002600086815260200190815260200160002060006101000a81548173ffffffffffffffffffffffffffffffffffffffff021916908373ffffffffffffffffffffffffffffffffffffffff160217905550838573ffffffffffffffffffffffffffffffffffffffff168273ffffffffffffffffffffffffffffffffffffffff167fddf252ad1be2c89b69c2b068fc378daa952ba7f163c4a11628f55a4df523b3ef60405160405180910390a4809150509392505050565b6008805490506009600083815260200190815260200160002081905550600881908060018154018082558091505060019003906000526020600020016000909190919091505550565b6000611d0283610c3b565b90506000600760008481526020019081526020016000205490506000600660008673ffffffffffffffffffffffffffffffffffffffff1673ffffffffffffffffffffffffffffffffffffffff1681526020019081526020016000209050828214611dae5760008160008581526020019081526020016000205490508082600085815260200190815260200160002081905550826007600083815260200190815260200160002081905550505b6007600085815260200190815260200160002060009055806000848152602001908152602001600020600090555050505050565b60006001600880549050611df6919061298c565b9050600060096000848152602001908152602001600020549050600060088381548110611e2657611e25612b5c565b5b906000526020600020015490508060088381548110611e4857611e47612b5c565b5b906000526020600020018190555081600960008381526020019081526020016000208190555060096000858152602001908152602001600020600090556008805480611e9757611e96612cfd565b5b6001900381819060005260206000200160009055905550505050565b60006001611ec084610c3b565b611eca919061298c565b905081600660008573ffffffffffffffffffffffffffffffffffffffff1673ffffffffffffffffffffffffffffffffffffffff168152602001908152602001600020600083815260200190815260200160002081905550806007600084815260200190815260200160002081905550505050565b600080600090507a184f03e93ff9f4daa797ed6e38ed64bf6a1f0100000000000000008310611f9c577a184f03e93ff9f4daa797ed6e38ed64bf6a1f0100000000000000008381611f9257611f91612cce565b5b0492506040810190505b6d04ee2d6d415b85acef81000000008310611fd9576d04ee2d6d415b85acef81000000008381611fcf57611fce612cce565b5b0492506020810190505b662386f26fc10000831061200857662386f26fc100008381611ffe57611ffd612cce565b5b0492506010810190505b6305f5e1008310612031576305f5e100838161202757612026612cce565b5b0492506008810190505b612710831061205657612710838161204c5761204b612cce565b5b0492506004810190505b60648310612079576064838161206f5761206e612cce565b5b0492506002810190505b600a8310612088576001810190505b80915050919050565b600073ffffffffffffffffffffffffffffffffffffffff168273ffffffffffffffffffffffffffffffffffffffff16036121035760006040517f64a0ae920000000000000000000000000000000000000000000000000000000081526004016120fa9190612534565b60405180910390fd5b600061211183836000611195565b9050600073ffffffffffffffffffffffffffffffffffffffff168173ffffffffffffffffffffffffffffffffffffffff16146121855760006040517f73c6ac6e00000000000000000000000000000000000000000000000000000000815260040161217c9190612534565b60405180910390fd5b505050565b61219583838361224e565b61224957600073ffffffffffffffffffffffffffffffffffffffff168373ffffffffffffffffffffffffffffffffffffffff160361220a57806040517f7e27328900000000000000000000000000000000000000000000000000000000815260040161220191906125ca565b60405180910390fd5b81816040517f177e802f000000000000000000000000000000000000000000000000000000008152600401612240929190612a81565b60405180910390fd5b505050565b60008073ffffffffffffffffffffffffffffffffffffffff168373ffffffffffffffffffffffffffffffffffffffff161415801561230657508273ffffffffffffffffffffffffffffffffffffffff168473ffffffffffffffffffffffffffffffffffffffff1614806122c757506122c68484610e9c565b5b8061230557508273ffffffffffffffffffffffffffffffffffffffff166122ed83611120565b73ffffffffffffffffffffffffffffffffffffffff16145b5b90509392505050565b6000604051905090565b600080fd5b600080fd5b60007fffffffff0000000000000000000000000000000000000000000000000000000082169050919050565b61235881612323565b811461236357600080fd5b50565b6000813590506123758161234f565b92915050565b60006020828403121561239157612390612319565b5b600061239f84828501612366565b91505092915050565b60008115159050919050565b6123bd816123a8565b82525050565b60006020820190506123d860008301846123b4565b92915050565b600081519050919050565b600082825260208201905092915050565b60005b838110156124185780820151818401526020810190506123fd565b60008484015250505050565b6000601f19601f8301169050919050565b6000612440826123de565b61244a81856123e9565b935061245a8185602086016123fa565b61246381612424565b840191505092915050565b600060208201905081810360008301526124888184612435565b905092915050565b6000819050919050565b6124a381612490565b81146124ae57600080fd5b50565b6000813590506124c08161249a565b92915050565b6000602082840312156124dc576124db612319565b5b60006124ea848285016124b1565b91505092915050565b600073ffffffffffffffffffffffffffffffffffffffff82169050919050565b600061251e826124f3565b9050919050565b61252e81612513565b82525050565b60006020820190506125496000830184612525565b92915050565b61255881612513565b811461256357600080fd5b50565b6000813590506125758161254f565b92915050565b6000806040838503121561259257612591612319565b5b60006125a085828601612566565b92505060206125b1858286016124b1565b9150509250929050565b6125c481612490565b82525050565b60006020820190506125df60008301846125bb565b92915050565b6000806000606084860312156125fe576125fd612319565b5b600061260c86828701612566565b935050602061261d86828701612566565b925050604061262e868287016124b1565b9150509250925092565b60006020828403121561264e5761264d612319565b5b600061265c84828501612566565b91505092915050565b61266e816123a8565b811461267957600080fd5b50565b60008135905061268b81612665565b92915050565b600080604083850312156126a8576126a7612319565b5b60006126b685828601612566565b92505060206126c78582860161267c565b9150509250929050565b600080fd5b600080fd5b7f4e487b7100000000000000000000000000000000000000000000000000000000600052604160045260246000fd5b61271382612424565b810181811067ffffffffffffffff82111715612732576127316126db565b5b80604052505050565b600061274561230f565b9050612751828261270a565b919050565b600067ffffffffffffffff821115612771576127706126db565b5b61277a82612424565b9050602081019050919050565b82818337600083830152505050565b60006127a96127a484612756565b61273b565b9050828152602081018484840111156127c5576127c46126d6565b5b6127d0848285612787565b509392505050565b600082601f8301126127ed576127ec6126d1565b5b81356127fd848260208601612796565b91505092915050565b600080600080608085870312156128205761281f612319565b5b600061282e87828801612566565b945050602061283f87828801612566565b9350506040612850878288016124b1565b925050606085013567ffffffffffffffff8111156128715761287061231e565b5b61287d878288016127d8565b91505092959194509250565b600080604083850312156128a05761289f612319565b5b60006128ae85828601612566565b92505060206128bf85828601612566565b9150509250929050565b7f4e487b7100000000000000000000000000000000000000000000000000000000600052602260045260246000fd5b6000600282049050600182168061291057607f821691505b602082108103612923576129226128c9565b5b50919050565b7f4e487b7100000000000000000000000000000000000000000000000000000000600052601160045260246000fd5b600061296382612490565b915061296e83612490565b925082820190508082111561298657612985612929565b5b92915050565b600061299782612490565b91506129a283612490565b92508282039050818111156129ba576129b9612929565b5b92915050565b6000815190506129cf81612665565b92915050565b6000602082840312156129eb576129ea612319565b5b60006129f9848285016129c0565b91505092915050565b6000612a0d82612490565b91507fffffffffffffffffffffffffffffffffffffffffffffffffffffffffffffffff8203612a3f57612a3e612929565b5b600182019050919050565b6000606082019050612a5f6000830186612525565b612a6c60208301856125bb565b612a796040830184612525565b949350505050565b6000604082019050612a966000830185612525565b612aa360208301846125bb565b9392505050565b600081905092915050565b50565b6000612ac5600083612aaa565b9150612ad082612ab5565b600082019050919050565b6000612ae682612ab8565b9150819050919050565b7f4661696c656420746f2073656e64204574686572000000000000000000000000600082015250565b6000612b266014836123e9565b9150612b3182612af0565b602082019050919050565b60006020820190508181036000830152612b5581612b19565b9050919050565b7f4e487b7100000000000000000000000000000000000000000000000000000000600052603260045260246000fd5b600081905092915050565b6000612ba1826123de565b612bab8185612b8b565b9350612bbb8185602086016123fa565b80840191505092915050565b6000612bd38285612b96565b9150612bdf8284612b96565b91508190509392505050565b600081519050919050565b600082825260208201905092915050565b6000612c1282612beb565b612c1c8185612bf6565b9350612c2c8185602086016123fa565b612c3581612424565b840191505092915050565b6000608082019050612c556000830187612525565b612c626020830186612525565b612c6f60408301856125bb565b8181036060830152612c818184612c07565b905095945050505050565b600081519050612c9b8161234f565b92915050565b600060208284031215612cb757612cb6612319565b5b6000612cc584828501612c8c565b91505092915050565b7f4e487b7100000000000000000000000000000000000000000000000000000000600052601260045260246000fd5b7f4e487b7100000000000000000000000000000000000000000000000000000000600052603160045260246000fdfea2646970667358221220202f3fccfa9076848d19261c55f963ea3059afed332cc956d4e7d63dcc42268f64736f6c634300081c0033",
  "devdoc": {
    "errors": {
      "ERC721EnumerableForbiddenBatchMint()": [
        {
          "details": "Batch mint is not allowed."
        }
      ],
      "ERC721IncorrectOwner(address,uint256,address)": [
        {
          "details": "Indicates an error related to the ownership over a particular token. Used in transfers.",
          "params": {
            "owner": "Address of the current owner of a token.",
            "sender": "Address whose tokens are being transferred.",
            "tokenId": "Identifier number of a token."
          }
        }
      ],
      "ERC721InsufficientApproval(address,uint256)": [
        {
          "details": "Indicates a failure with the `operator`s approval. Used in transfers.",
          "params": {
            "operator": "Address that may be allowed to operate on tokens without being their owner.",
            "tokenId": "Identifier number of a token."
          }
        }
      ],
      "ERC721InvalidApprover(address)": [
        {
          "details": "Indicates a failure with the `approver` of a token to be approved. Used in approvals.",
          "params": {
            "approver": "Address initiating an approval operation."
          }
        }
      ],
      "ERC721InvalidOperator(address)": [
        {
          "details": "Indicates a failure with the `operator` to be approved. Used in approvals.",
          "params": {
            "operator": "Address that may be allowed to operate on tokens without being their owner."
          }
        }
      ],
      "ERC721InvalidOwner(address)": [
        {
          "details": "Indicates that an address can't be an owner. For example, `address(0)` is a forbidden owner in ERC-20. Used in balance queries.",
          "params": {
            "owner": "Address of the current owner of a token."
          }
        }
      ],
      "ERC721InvalidReceiver(address)": [
        {
          "details": "Indicates a failure with the token `receiver`. Used in transfers.",
          "params": {
            "receiver": "Address to which tokens are being transferred."
          }
        }
      ],
      "ERC721InvalidSender(address)": [
        {
          "details": "Indicates a failure with the token `sender`. Used in transfers.",
          "params": {
            "sender": "Address whose tokens are being transferred."
          }
        }
      ],
      "ERC721NonexistentToken(uint256)": [
        {
          "details": "Indicates a `tokenId` whose `owner` is the zero address.",
          "params": {
            "tokenId": "Identifier number of a token."
          }
        }
      ],
      "ERC721OutOfBoundsIndex(address,uint256)": [
        {
          "details": "An `owner`'s token query was out of bounds for `index`. NOTE: The owner being `address(0)` indicates a global out of bounds index."
        }
      ],
      "OwnableInvalidOwner(address)": [
        {
          "details": "The owner is not a valid owner account. (eg. `address(0)`)"
        }
      ],
      "OwnableUnauthorizedAccount(address)": [
        {
          "details": "The caller account is not authorized to perform an operation."
        }
      ]
    },
    "events": {
      "Approval(address,address,uint256)": {
        "details": "Emitted when `owner` enables `approved` to manage the `tokenId` token."
      },
      "ApprovalForAll(address,address,bool)": {
        "details": "Emitted when `owner` enables or disables (`approved`) `operator` to manage all of its assets."
      },
      "Transfer(address,address,uint256)": {
        "details": "Emitted when `tokenId` token is transferred from `from` to `to`."
      }
    },
    "kind": "dev",
    "methods": {
      "approve(address,uint256)": {
        "details": "See {IERC721-approve}."
      },
      "balanceOf(address)": {
        "details": "See {IERC721-balanceOf}."
      },
      "getApproved(uint256)": {
        "details": "See {IERC721-getApproved}."
      },
      "isApprovedForAll(address,address)": {
        "details": "See {IERC721-isApprovedForAll}."
      },
      "name()": {
        "details": "See {IERC721Metadata-name}."
      },
      "owner()": {
        "details": "Returns the address of the current owner."
      },
      "ownerOf(uint256)": {
        "details": "See {IERC721-ownerOf}."
      },
      "renounceOwnership()": {
        "details": "Leaves the contract without owner. It will not be possible to call `onlyOwner` functions. Can only be called by the current owner. NOTE: Renouncing ownership will leave the contract without an owner, thereby disabling any functionality that is only available to the owner."
      },
      "safeTransferFrom(address,address,uint256)": {
        "details": "See {IERC721-safeTransferFrom}."
      },
      "safeTransferFrom(address,address,uint256,bytes)": {
        "details": "See {IERC721-safeTransferFrom}."
      },
      "setApprovalForAll(address,bool)": {
        "details": "See {IERC721-setApprovalForAll}."
      },
      "supportsInterface(bytes4)": {
        "details": "See {IERC165-supportsInterface}."
      },
      "symbol()": {
        "details": "See {IERC721Metadata-symbol}."
      },
      "tokenByIndex(uint256)": {
        "details": "See {IERC721Enumerable-tokenByIndex}."
      },
      "tokenOfOwnerByIndex(address,uint256)": {
        "details": "See {IERC721Enumerable-tokenOfOwnerByIndex}."
      },
      "tokenURI(uint256)": {
        "details": "See {IERC721Metadata-tokenURI}."
      },
      "totalSupply()": {
        "details": "See {IERC721Enumerable-totalSupply}."
      },
      "transferFrom(address,address,uint256)": {
        "details": "See {IERC721-transferFrom}."
      },
      "transferOwnership(address)": {
        "details": "Transfers ownership of the contract to a new account (`newOwner`). Can only be called by the current owner."
      }
    },
    "version": 1
  },
  "userdoc": {
    "kind": "user",
    "methods": {},
    "version": 1
  },
  "storageLayout": {
    "storage": [
      {
        "astId": 317,
        "contract": "contracts/Suprabhat__Mitro.sol:Suprabhat__Mitro",
        "label": "_name",
        "offset": 0,
        "slot": "0",
        "type": "t_string_storage"
      },
      {
        "astId": 319,
        "contract": "contracts/Suprabhat__Mitro.sol:Suprabhat__Mitro",
        "label": "_symbol",
        "offset": 0,
        "slot": "1",
        "type": "t_string_storage"
      },
      {
        "astId": 323,
        "contract": "contracts/Suprabhat__Mitro.sol:Suprabhat__Mitro",
        "label": "_owners",
        "offset": 0,
        "slot": "2",
        "type": "t_mapping(t_uint256,t_address)"
      },
      {
        "astId": 327,
        "contract": "contracts/Suprabhat__Mitro.sol:Suprabhat__Mitro",
        "label": "_balances",
        "offset": 0,
        "slot": "3",
        "type": "t_mapping(t_address,t_uint256)"
      },
      {
        "astId": 331,
        "contract": "contracts/Suprabhat__Mitro.sol:Suprabhat__Mitro",
        "label": "_tokenApprovals",
        "offset": 0,
        "slot": "4",
        "type": "t_mapping(t_uint256,t_address)"
      },
      {
        "astId": 337,
        "contract": "contracts/Suprabhat__Mitro.sol:Suprabhat__Mitro",
        "label": "_operatorApprovals",
        "offset": 0,
        "slot": "5",
        "type": "t_mapping(t_address,t_mapping(t_address,t_bool))"
      },
      {
        "astId": 1395,
        "contract": "contracts/Suprabhat__Mitro.sol:Suprabhat__Mitro",
        "label": "_ownedTokens",
        "offset": 0,
        "slot": "6",
        "type": "t_mapping(t_address,t_mapping(t_uint256,t_uint256))"
      },
      {
        "astId": 1399,
        "contract": "contracts/Suprabhat__Mitro.sol:Suprabhat__Mitro",
        "label": "_ownedTokensIndex",
        "offset": 0,
        "slot": "7",
        "type": "t_mapping(t_uint256,t_uint256)"
      },
      {
        "astId": 1402,
        "contract": "contracts/Suprabhat__Mitro.sol:Suprabhat__Mitro",
        "label": "_allTokens",
        "offset": 0,
        "slot": "8",
        "type": "t_array(t_uint256)dyn_storage"
      },
      {
        "astId": 1406,
        "contract": "contracts/Suprabhat__Mitro.sol:Suprabhat__Mitro",
        "label": "_allTokensIndex",
        "offset": 0,
        "slot": "9",
        "type": "t_mapping(t_uint256,t_uint256)"
      },
      {
        "astId": 8,
        "contract": "contracts/Suprabhat__Mitro.sol:Suprabhat__Mitro",
        "label": "_owner",
        "offset": 0,
        "slot": "10",
        "type": "t_address"
      },
      {
        "astId": 6758,
        "contract": "contracts/Suprabhat__Mitro.sol:Suprabhat__Mitro",
        "label": "s_reservedTokensClaimed",
        "offset": 0,
        "slot": "11",
        "type": "t_uint256"
      },
      {
        "astId": 6761,
        "contract": "contracts/Suprabhat__Mitro.sol:Suprabhat__Mitro",
        "label": "whitelist",
        "offset": 0,
        "slot": "12",
        "type": "t_contract(Whitelist)6992"
      }
    ],
    "types": {
      "t_address": {
        "encoding": "inplace",
        "label": "address",
        "numberOfBytes": "20"
      },
      "t_array(t_uint256)dyn_storage": {
        "base": "t_uint256",
        "encoding": "dynamic_array",
        "label": "uint256[]",
        "numberOfBytes": "32"
      },
      "t_bool": {
        "encoding": "inplace",
        "label": "bool",
        "numberOfBytes": "1"
      },
      "t_contract(Whitelist)6992": {
        "encoding": "inplace",
        "label": "contract Whitelist",
        "numberOfBytes": "20"
      },
      "t_mapping(t_address,t_bool)": {
        "encoding": "mapping",
        "key": "t_address",
        "label": "mapping(address => bool)",
        "numberOfBytes": "32",
        "value": "t_bool"
      },
      "t_mapping(t_address,t_mapping(t_address,t_bool))": {
        "encoding": "mapping",
        "key": "t_address",
        "label": "mapping(address => mapping(address => bool))",
        "numberOfBytes": "32",
        "value": "t_mapping(t_address,t_bool)"
      },
      "t_mapping(t_address,t_mapping(t_uint256,t_uint256))": {
        "encoding": "mapping",
        "key": "t_address",
        "label": "mapping(address => mapping(uint256 => uint256))",
        "numberOfBytes": "32",
        "value": "t_mapping(t_uint256,t_uint256)"
      },
      "t_mapping(t_address,t_uint256)": {
        "encoding": "mapping",
        "key": "t_address",
        "label": "mapping(address => uint256)",
        "numberOfBytes": "32",
        "value": "t_uint256"
      },
      "t_mapping(t_uint256,t_address)": {
        "encoding": "mapping",
        "key": "t_uint256",
        "label": "mapping(uint256 => address)",
        "numberOfBytes": "32",
        "value": "t_address"
      },
      "t_mapping(t_uint256,t_uint256)": {
        "encoding": "mapping",
        "key": "t_uint256",
        "label": "mapping(uint256 => uint256)",
        "numberOfBytes": "32",
        "value": "t_uint256"
      },
      "t_string_storage": {
        "encoding": "bytes",
        "label": "string",
        "numberOfBytes": "32"
      },
      "t_uint256": {
        "encoding": "inplace",
        "label": "uint256",
        "numberOfBytes": "32"
      }
    }
  }
}