{
  "address": "0xbaC23Cdb136891dcc19A0d6c7BbA462891FB3F6D",
  "abi": [
    {
      "inputs": [
        {
          "internalType": "uint8",
          "name": "_maxWhitelistAddress",
          "type": "uint8"
        }
      ],
      "stateMutability": "nonpayable",
      "type": "constructor"
    },
    {
      "inputs": [],
      "name": "Whitelist_MaxLimitReached",
      "type": "error"
    },
    {
      "inputs": [],
      "name": "Whitelist__AlreadyWhitelisted",
      "type": "error"
    },
    {
      "inputs": [],
      "name": "addTowhitelist",
      "outputs": [],
      "stateMutability": "nonpayable",
      "type": "function"
    },
    {
      "inputs": [
        {
          "internalType": "address",
          "name": "_people",
          "type": "address"
        }
      ],
      "name": "checkWhitelisted",
      "outputs": [
        {
          "internalType": "bool",
          "name": "",
          "type": "bool"
        }
      ],
      "stateMutability": "view",
      "type": "function"
    },
    {
      "inputs": [],
      "name": "getNumofAddressesWhitelisted",
      "outputs": [
        {
          "internalType": "uint8",
          "name": "",
          "type": "uint8"
        }
      ],
      "stateMutability": "view",
      "type": "function"
    },
    {
      "inputs": [],
      "name": "i_maxWhitelistAddress",
      "outputs": [
        {
          "internalType": "uint8",
          "name": "",
          "type": "uint8"
        }
      ],
      "stateMutability": "view",
      "type": "function"
    }
  ],
  "transactionHash": "0xa388eecb926988955fa73f056a766f7797d9a556c9c3446953523b4c07acbb70",
  "args": [
    "10"
  ],
  "numDeployments": 1,
  "solcInputHash": "5fcbdda12c55719a428023c95b2c7d33",
  "bytecode": "0x60a060405234801561001057600080fd5b50604051610552380380610552833981810160405281019061003291906100a0565b8060ff1660808160ff16815250506000600160006101000a81548160ff021916908360ff160217905550506100cd565b600080fd5b600060ff82169050919050565b61007d81610067565b811461008857600080fd5b50565b60008151905061009a81610074565b92915050565b6000602082840312156100b6576100b5610062565b5b60006100c48482850161008b565b91505092915050565b6080516104646100ee6000396000818160c901526101c501526104646000f3fe608060405234801561001057600080fd5b506004361061004c5760003560e01c8063048e2e761461005157806320d8dad01461006f578063df1b53911461009f578063f9dc1d11146100a9575b600080fd5b6100596100c7565b60405161006691906102f5565b60405180910390f35b61008960048036038101906100849190610373565b6100eb565b60405161009691906103bb565b60405180910390f35b6100a7610140565b005b6100b16102c2565b6040516100be91906102f5565b60405180910390f35b7f000000000000000000000000000000000000000000000000000000000000000081565b60008060008373ffffffffffffffffffffffffffffffffffffffff1673ffffffffffffffffffffffffffffffffffffffff16815260200190815260200160002060009054906101000a900460ff169050919050565b6000803373ffffffffffffffffffffffffffffffffffffffff1673ffffffffffffffffffffffffffffffffffffffff16815260200190815260200160002060009054906101000a900460ff16156101c3576040517f57657b7700000000000000000000000000000000000000000000000000000000815260040160405180910390fd5b7f000000000000000000000000000000000000000000000000000000000000000060ff16600160009054906101000a900460ff1660ff1610610231576040517fd4ee32fe00000000000000000000000000000000000000000000000000000000815260040160405180910390fd5b60016000803373ffffffffffffffffffffffffffffffffffffffff1673ffffffffffffffffffffffffffffffffffffffff16815260200190815260200160002060006101000a81548160ff0219169083151502179055506001600081819054906101000a900460ff16809291906102a790610405565b91906101000a81548160ff021916908360ff16021790555050565b6000600160009054906101000a900460ff16905090565b600060ff82169050919050565b6102ef816102d9565b82525050565b600060208201905061030a60008301846102e6565b92915050565b600080fd5b600073ffffffffffffffffffffffffffffffffffffffff82169050919050565b600061034082610315565b9050919050565b61035081610335565b811461035b57600080fd5b50565b60008135905061036d81610347565b92915050565b60006020828403121561038957610388610310565b5b60006103978482850161035e565b91505092915050565b60008115159050919050565b6103b5816103a0565b82525050565b60006020820190506103d060008301846103ac565b92915050565b7f4e487b7100000000000000000000000000000000000000000000000000000000600052601160045260246000fd5b6000610410826102d9565b915060ff8203610423576104226103d6565b5b60018201905091905056fea26469706673582212204f9703d8b88ea581ec71ef5e84336f0b08fcb421cd14ac5fe17fd4bb878a72eb64736f6c634300081c0033",
  "devdoc": {
    "kind": "dev",
    "methods": {},
    "version": 1
  },
  "userdoc": {
    "kind": "user",
    "methods": {},
    "version": 1
  },
  "storageLayout": {
    "storage": [
      {
        "astId": 6924,
        "contract": "contracts/Whitelist.sol:Whitelist",
        "label": "whitelistedAddresses",
        "offset": 0,
        "slot": "0",
        "type": "t_mapping(t_address,t_bool)"
      },
      {
        "astId": 6926,
        "contract": "contracts/Whitelist.sol:Whitelist",
        "label": "numOfAddressesWhitelisted",
        "offset": 0,
        "slot": "1",
        "type": "t_uint8"
      }
    ],
    "types": {
      "t_address": {
        "encoding": "inplace",
        "label": "address",
        "numberOfBytes": "20"
      },
      "t_bool": {
        "encoding": "inplace",
        "label": "bool",
        "numberOfBytes": "1"
      },
      "t_mapping(t_address,t_bool)": {
        "encoding": "mapping",
        "key": "t_address",
        "label": "mapping(address => bool)",
        "numberOfBytes": "32",
        "value": "t_bool"
      },
      "t_uint8": {
        "encoding": "inplace",
        "label": "uint8",
        "numberOfBytes": "1"
      }
    }
  }
}