{
  "address": "0x79747a5e9347E3007782fD5A150638B0822d996D",
  "abi": [
    {
      "inputs": [
        {
          "internalType": "uint8",
          "name": "_maxWhitelistAddress",
          "type": "uint8"
        }
      ],
      "stateMutability": "nonpayable",
      "type": "constructor"
    },
    {
      "inputs": [],
      "name": "Whitelist_MaxLimitReached",
      "type": "error"
    },
    {
      "inputs": [],
      "name": "Whitelist__AlreadyWhitelisted",
      "type": "error"
    },
    {
      "inputs": [],
      "name": "addTowhitelist",
      "outputs": [],
      "stateMutability": "nonpayable",
      "type": "function"
    },
    {
      "inputs": [],
      "name": "getNumofAddressesWhitelisted",
      "outputs": [
        {
          "internalType": "uint8",
          "name": "",
          "type": "uint8"
        }
      ],
      "stateMutability": "view",
      "type": "function"
    },
    {
      "inputs": [],
      "name": "i_maxWhitelistAddress",
      "outputs": [
        {
          "internalType": "uint8",
          "name": "",
          "type": "uint8"
        }
      ],
      "stateMutability": "view",
      "type": "function"
    },
    {
      "inputs": [
        {
          "internalType": "address",
          "name": "",
          "type": "address"
        }
      ],
      "name": "whitelistedAddresses",
      "outputs": [
        {
          "internalType": "bool",
          "name": "",
          "type": "bool"
        }
      ],
      "stateMutability": "view",
      "type": "function"
    }
  ],
  "transactionHash": "0xbf09e4f5d9a71194806e74cb34d98289429051639f06d487237e8f5818b0f4ef",
  "args": [
    "10"
  ],
  "numDeployments": 2,
  "solcInputHash": "4b18d00109ade52b1414c36c3101b4d7",
  "bytecode": "0x60a060405234801561001057600080fd5b5060405161051d38038061051d833981810160405281019061003291906100a0565b8060ff1660808160ff16815250506000600160006101000a81548160ff021916908360ff160217905550506100cd565b600080fd5b600060ff82169050919050565b61007d81610067565b811461008857600080fd5b50565b60008151905061009a81610074565b92915050565b6000602082840312156100b6576100b5610062565b5b60006100c48482850161008b565b91505092915050565b60805161042f6100ee6000396000818160c90152610190015261042f6000f3fe608060405234801561001057600080fd5b506004361061004c5760003560e01c8063048e2e761461005157806306c933d81461006f578063df1b53911461009f578063f9dc1d11146100a9575b600080fd5b6100596100c7565b60405161006691906102c0565b60405180910390f35b6100896004803603810190610084919061033e565b6100eb565b6040516100969190610386565b60405180910390f35b6100a761010b565b005b6100b161028d565b6040516100be91906102c0565b60405180910390f35b7f000000000000000000000000000000000000000000000000000000000000000081565b60006020528060005260406000206000915054906101000a900460ff1681565b6000803373ffffffffffffffffffffffffffffffffffffffff1673ffffffffffffffffffffffffffffffffffffffff16815260200190815260200160002060009054906101000a900460ff161561018e576040517f57657b7700000000000000000000000000000000000000000000000000000000815260040160405180910390fd5b7f000000000000000000000000000000000000000000000000000000000000000060ff16600160009054906101000a900460ff1660ff16106101fc576040517fd4ee32fe00000000000000000000000000000000000000000000000000000000815260040160405180910390fd5b60016000803373ffffffffffffffffffffffffffffffffffffffff1673ffffffffffffffffffffffffffffffffffffffff16815260200190815260200160002060006101000a81548160ff0219169083151502179055506001600081819054906101000a900460ff1680929190610272906103d0565b91906101000a81548160ff021916908360ff16021790555050565b6000600160009054906101000a900460ff16905090565b600060ff82169050919050565b6102ba816102a4565b82525050565b60006020820190506102d560008301846102b1565b92915050565b600080fd5b600073ffffffffffffffffffffffffffffffffffffffff82169050919050565b600061030b826102e0565b9050919050565b61031b81610300565b811461032657600080fd5b50565b60008135905061033881610312565b92915050565b600060208284031215610354576103536102db565b5b600061036284828501610329565b91505092915050565b60008115159050919050565b6103808161036b565b82525050565b600060208201905061039b6000830184610377565b92915050565b7f4e487b7100000000000000000000000000000000000000000000000000000000600052601160045260246000fd5b60006103db826102a4565b915060ff82036103ee576103ed6103a1565b5b60018201905091905056fea26469706673582212202c690dc4ac16f14da3758baf9e706665869b800373a22e2bef73ca36dbfb007164736f6c634300081c0033",
  "devdoc": {
    "kind": "dev",
    "methods": {},
    "version": 1
  },
  "userdoc": {
    "kind": "user",
    "methods": {},
    "version": 1
  },
  "storageLayout": {
    "storage": [
      {
        "astId": 6924,
        "contract": "contracts/Whitelist.sol:Whitelist",
        "label": "whitelistedAddresses",
        "offset": 0,
        "slot": "0",
        "type": "t_mapping(t_address,t_bool)"
      },
      {
        "astId": 6926,
        "contract": "contracts/Whitelist.sol:Whitelist",
        "label": "numOfAddressesWhitelisted",
        "offset": 0,
        "slot": "1",
        "type": "t_uint8"
      }
    ],
    "types": {
      "t_address": {
        "encoding": "inplace",
        "label": "address",
        "numberOfBytes": "20"
      },
      "t_bool": {
        "encoding": "inplace",
        "label": "bool",
        "numberOfBytes": "1"
      },
      "t_mapping(t_address,t_bool)": {
        "encoding": "mapping",
        "key": "t_address",
        "label": "mapping(address => bool)",
        "numberOfBytes": "32",
        "value": "t_bool"
      },
      "t_uint8": {
        "encoding": "inplace",
        "label": "uint8",
        "numberOfBytes": "1"
      }
    }
  }
}